:100000000C9489000C94A3110C94A3110C94A311CB
:100010000C94A3110C94120C0C94070E0C94750DF7
:100020000C9459110C94A3110C94A3110C94A311CA
:100030000C94A3110C94A3110C94A3110C94A31170
:100040000C94A3110C94A3110C94A3110C94A31160
:100050000C94A3110C94A3110C94A3110C94A31150
:100060000C940A0D0C94A3110C94D70D0C94A70DAD
:100070000C94A3110C94A3110C945E110C94A31175
:100080000C94A3110C94A3110C94A3110C9468115B
:100090000C94A3110C94A3110C94A3110C94A31110
:1000A0000C94A3110C94A3110C94A3110C94A31100
:1000B0000C94A3110C94CE0B0C9463110C94A3110B
:1000C0000C94A3110C94A3110C94A3110C94A311E0
:1000D0000C94A3110C94A3110C94A3110C94A311D0
:1000E0000C94A3110C94A3110C94A3110C94A311C0
:1000F0000C94A3114000400880400840340023685D
:100100004034404E80404E40500023944050405474
:10011000800011241FBECFEFCDBFDFE7DEBFE4EFCD
:10012000F0E041E019C0B791A7913791279107916D
:1001300007FD0EC097918791EF01F92FE82F0BBFB4
:1001400007900D92A217B307D9F7FE011BBE04C09A
:100150001D92A217B307E1F7E131F40721F70E94DE
:0A016000B3070C94C310F894FFCF0E
:10016A004E6577204761696E3A2025730A0D0A0D9C
:10017A000043757272656E74204761696E3A202574
:10018A00730A0D004D656173757265643A20002526
:10019A00312E3366560A0D0A0D003100312E3037E2
:1001AA0000312E313400312E3333003200322E36F4
:0901BA0037003400380031360032
:1001C30068076C094C836A9074A07AC000806888C1
:0601D30000846C82008133
:1001D900494E4600696E66004E414E006E616E00E2
:0701E900286E756C6C290003
:0601F000286E696C290075
:1001F600A6E2B0E0E1E0F1E00C94D80F8F8F98A36F
:100206006E8B7F8B288FFB010190F081E02DE987B3
:10021600FA87FB0102811381248135812A8B3B8B6E
:100226008085918589A39AA30680F781E02DE983CD
:10023600FA83FA0180809180A280B38020E030E0CA
:10024600A901C501B4010E94771187FF06C0B7FA5C
:10025600B094B7F8B0948DE204C0F985F2FF69C393
:100266008BE2E981FA8180832A893B892150310911
:100276002B833C8341E050E0488B598B06C08A892A
:100286009B898B839C83188A198AD501C401BF7701
:100296000097E0E8AE07EFE7BE07F1F4F88D2F2FE1
:1002A600FF0F330B2154310989819A814889598975
:1002B600840F951F2A31310520F449ED51E060E0A5
:1002C60003C04DED51E060E00E94911089819A8152
:1002D6003C01E0E88E2E1AC30197A048BF47F0F014
:1002E600488D242F440F330B2154310989819A817B
:1002F600E889F9898E0F9F1F2A31310520F441EED6
:1003060051E060E003C045EE51E060E00E949110CC
:1003160029813A81390140E8842EF8C220E030E094
:10032600A901C501B4010E947711C12CD12C20E886
:10033600E22E2FE3F22E212C312C882309F487C0DC
:100346008D829E82AF82B88620E030E040E251E4A2
:10035600C701B6010E9489112B013C01D501C401D8
:1003660084199509A609B709B7FF07C0B095A095E6
:10037600909581959F4FAF4FBF4F0297A105B1054D
:1003860034F45FEF251A350A73016201DDCFA5014A
:100396009401C301B2010E94771187FDF2CF8D81CE
:1003A6009E81AF81B8858C199D09AE09BF0901965A
:1003B600A11DB11D0397A105B10508F446C01D8214
:1003C6001E82A5019401C701B6010E947C11181670
:1003D600F4F584ED28168EEF3806E4F4ED81FE81FF
:1003E600EF2BC1F420E030E040E85AE5C501B40146
:1003F6000E9489114B015C0120E030E040E85AE59B
:10040600C701B6010E9489116B017C0121E030E031
:100416002D833E8320E030E040E251E4C701B6017F
:100426000E948D116B017C0131E0231A3108D50140
:10043600C4018C199D09AE09BF090196A11DB11D04
:100446000397A105B10508F0BCCF46015701488DB9
:10045600042E000C550B488F598FCA010E94E710D5
:100466008A8F17FD03C00D831E8304C086E090E0CB
:100476008D839E839A8D973639F4012B41F4E1E002
:10048600F0E0ED83FE8303C04A8D4F8710C02CEF4A
:1004960022162FEF32060CF451C22D813E81221610
:1004A60033060CF04BC237FE4CC256E65F878D8191
:1004B6009E8101968D839E839F85963699F437FE9D
:1004C60008C0C12CD12C90E8E92E9FE3F92E212CEF
:1004D600312CEA8DE73631F02D813E81220D331D18
:1004E6002D833E831C2DDDA2EBA20F2D8B869C86D1
:1004F600AD86BE861C8A1D8A8C899D89ED81FE810A
:100506008E179F07DCF5212F3DA14BA1502F6B8540
:100516007C858D859E850E948D110E9445082B0144
:100526003C010E9419116B8FA3019201612F7DA1DD
:100536008BA1902F0E9489112B853C854D855E8568
:100546000E9412119B01AC0150582B873C874D87A6
:100556005E8720E030E040E251E4612F7DA18BA16F
:10056600902F0E948D11162F7DA38BA3092F4C89E6
:100576005D894F5F5F4F4C8B5D8BBECF20E030E0D7
:1005860040EA50E4612F7DA18BA1902F0E94891132
:100596002B013C019B01AC016B857C858D859E857D
:1005A6000E94771187FD0DC0A30192016B857C85A2
:1005B6008D859E850E947711811106C0FB8DF0FD09
:1005C60003C0412C512C3201A5019401C301B20193
:1005D6000E9413114B015C0120E030E040E251E43F
:1005E600C701B6010E9489116B877C8B182F092FD2
:1005F6009B01482F592FC501B4010E947C1187FD2C
:1006060011C02FEF221A320A3F85363679F44D8112
:100616005E814F5F5F4F4D835E835B855DA38C89F3
:100626008EA30BC0CB86DC8A1E2D0F2D9F8595369B
:1006360031F0EB85EDA3FC89FEA3710106C02B8585
:100646002DA33C893EA3E12CF12C48885988C12C66
:10065600D12C1C8A1D8A1B861C8649855A854071A9
:1006660055274BA35CA32B853C854D815E812417C2
:10067600350734F08C899D89892B09F497C0A3C06E
:100686003201EE89FF8980859185059748165906BE
:1006960088F72DA13EA1412F502FC501B4010E941C
:1006A6008D110E9445086B8F7C8F8D8F9E8F0E94C7
:1006B60019116A30710514F069E070E08BA19CA1F4
:1006C600892B69F46115710551F49A8D973639F4C1
:1006D600F7FE05C03601EFEF6E1A7E0A3BC02C8985
:1006E6003D89232BA1F4F7FE12C03FEF431A530AAC
:1006F600E981FA81E60DF71D4EE240838B819C81EC
:1007060001978B839C83E1E0F0E0EC8BFD8BE98124
:10071600FA81E40DF51D36016114710431F020E310
:10072600219331E0631A7108F7CFC601840D951D38
:100736002B813C812C193D092C014FEF441A540A98
:10074600E981FA81E80FF91F605D6083C9010197AD
:100756008B839C832B8D3C8D4D8D5E8D6DA17EA1F3
:10076600812F902F0E948911A50194010E941211D8
:100776004B015C01B7FAB094B7F8B09420E030E0D2
:1007860040E251E46DA17EA1812F902F0E948D1130
:100796006DA37EA3182F092F91E0E91AF108EB85C6
:1007A600FC853196EB87FC8763015DCFF985F4FF05
:1007B6000AC0E981FA81E40DF51D8EE2808392017B
:1007C6002F5F3F4F290149815A81440D551D4D83A5
:1007D6005E83FA011082FF85F53609F061C0E98172
:1007E600FA8129A13AA1E20FF31F3197108237FE51
:1007F60006C031942194310801E010E002C000E007
:1008060010E0E9A1FAA1319749815A81E40FF51F59
:1008160022E030E08AE0E82EF12CCF0149815A81AE
:10082600841B950B2114310479F0C101B7010E9494
:100836003810805D82931B01215031098B819C8188
:1008460001978B839C83E9CF1216130674F3FC0180
:100856003197E40FF51F012B11F42BE201C02DE2B5
:1008660020830297E981FA81E80FF91F288D398DD7
:10087600215431092A31310510F025E601C025E45D
:1008860020832B813C81225031092B833C834816DF
:10089600590634F4AF0160E88D819E810E94911063
:1008A60049815A813A0180E8882E998591FF2EC0A8
:1008B60090FD2CC0EB81FC811E161F063CF5882D91
:1008C600B3010E94601029813A81820F931F9C0117
:1008D60049815A81241B350BE889F9892E173F0770
:1008E6004CF0FC012081EB81FC81E80FF91F20838D
:1008F6000197EDCF4B815C8160E370E089819A813D
:100906008E0F9F1F0E94CE101A8A1B8A882DB30154
:100916000E946010E984FA840A891B899C01682D6B
:10092600A3018F8D98A10E943A0BA696E2E10C9442
:100936000910598553FFA3CC80E293CC35E63F8757
:08094600D1CD46E64F87CECD6E
:10094E002F923F924F926F927F928F929F92AF9281
:10095E00BF92CF92DF92EF92FF920F931F93CF939E
:10096E00DF93CDB7DEB72E97CDBFDEBF4C016B0147
:10097E00380119821A828FEF9FEF8B839C831D8221
:10098E001E824F83588729873A87A12CB12CD60116
:10099E002D913D914C912A0D3B1D411DB7FC4A9561
:1009AE00F901542F0E940B11862F611116C0F6010A
:1009BE00208331834283F901542F0E940B1165323B
:1009CE0009F011C21901442EFFEF2F1A3F0A4F0AE8
:1009DE00D6012D923D924C921BC0653241F3B4016B
:1009EE00082E000C990B0E94EE0A4FEFA41AB40ABF
:1009FE00CECF6C32DCF06D3229F529813A8121603F
:100A0E0029833A830196A11DF60180839183A283E7
:100A1E00F60180819181A281FC015A2F0E940B1157
:100A2E006B3239F729813A812460EACF603221F4A2
:100A3E0029813A812860E4CF633251F429813A81C9
:100A4E002061DECF603321F429813A812260D8CF34
:100A5E00B701C6010E94510C8D839E8397FF0BC078
:100A6E0029813A81F1E02F2729833A839195819547
:100A7E0091098D839E8389819A8180FF03C08D7F2A
:100A8E0089839A83F60180819181A281FC015A2F7C
:100A9E000E940B116E3261F40196A11DF601808346
:100AAE009183A283B701C6010E94510C8B839C8354
:100ABE00C6010E944E0A182FD6019C9111968C9158
:100ACE00119712965C91E92FF82F0E940B11862F29
:100ADE00660F990B0E94E710893609F44BC084F417
:100AEE00833609F41CC134F4853209F448C18136C9
:100AFE00E1F053C18436F1F188360CF4EBC04DC1F0
:100B0E00803709F4B2C03CF48E3609F4D8C08F3663
:100B1E0009F46EC042C1853709F44BC0883709F419
:100B2E0086C0833709F039C110C1612F70E0A7016B
:100B3E00CE010B960E94360F892B09F44BC1F6019C
:100B4E0080819181A2819C014A2F2F5F3F4F4F4F91
:100B5E00208331834283FC015A2F0E940B11262FD2
:100B6E00AE01455F5F4FBE016F5F7F4FC4010E94B4
:100B7E0000002DC1612F70E0970141E050E0CE01E1
:100B8E000B960E940000892B09F424C1F601808186
:100B9E009181A2810196A11D80839183A283AE01D2
:100BAE00455F5F4FBE016F5F7F4FC4010E94000023
:100BBE000EC1612F70E0970140E050E0CE010B9620
:100BCE000E940000892B09F405C1F60180819181F4
:100BDE00A2810196A11D80839183A283AE01455F00
:100BEE005F4FBE016F5F7F4FC4010E940000EFC0D8
:100BFE00612F70E0970140E050E0CE010B960E940D
:100C0E000000892B09F4E6C0F60180819181A28152
:100C1E000196A11D80839183A283AE01455F5F4F34
:100C2E00BE016F5F7F4FC4010E940000D0C0612FD4
:100C3E0070E0970140E050E0CE010B960E9400005C
:100C4E00892B09F4C7C0F60180819181A2819C0194
:100C5E004A2F2F5F3F4F4F4F208331834283FC013A
:100C6E005A2F0E940B11262F20C0970140E050E012
:100C7E0060EF70E0CE010B960E940000892B09F404
:100C8E00A9C0F60180819181A2810196A11D808368
:100C9E009183A2838B859C85892B31F400E010E033
:100CAE0020EF31E040E08DC028E7AE01455F5F4F99
:100CBE00BE016F5F7F4FC4010E94000088C0A50176
:100CCE00460D571D612F70E09701CE010B960E94C5
:100CDE00000080C0612F70E0A701CE010B960E942C
:100CEE00360F892B09F476C0F60180819181A2819D
:100CFE009C014A2F2F5F3F4F4F4F208331834283FA
:100D0E00FC015A2F0E940B11262FAE01455F5F4F3B
:100D1E00BE016F5F7F4FC4010E94FB0058C01038A8
:100D2E0009F058C0F60180819181A2810196A11D22
:100D3E0080839183A283D701ED91FC911197CF010E
:100D4E0002968D939C93808126C0103809F042C084
:100D5E00F60180819181A2810196A11D80839183EC
:100D6E00A283D701ED91FC911197CF0103968D933C
:100D7E009C9320813181428100E010E022C0103826
:100D8E0049F5F6012081318142812F5F3F4F4F4F50
:100D9E002083318342838B870EC085E28B87F601D9
:100DAE0020823182428219821A821D821E828FEF28
:100DBE009FEF8B839C839E01255F3F4F40E801E0B0
:100DCE0010E0BE016F5F7F4FC4010E94CD0C8A0DF3
:100DDE009B1D0AC0F60180819181A2810196A11D01
:100DEE0080839183A283C5012E96CDBFDEBFDF9196
:100DFE00CF911F910F91FF90EF90DF90CF90BF900A
:100E0E00AF909F908F907F906F904F903F902F90CC
:020E1E00089535
:100E20000F931F93CF93DF9340E054E0FA011082B9
:100E300020E234E089E0F901808380E494E0FC0161
:100E40001082C0E6D4E01882A0E8B4E01C9200EA68
:100E500014E0F8011082FA01148261E0F901648360
:100E6000FC0114821C8214961C921497F8011482BF
:100E7000FA01108A118A128A138A148A158A168A2C
:100E8000178AF901108A118A48E8428B138A148A5A
:100E9000158A168A178AFC01108A118A128A138A07
:100EA000148A158A168A178A188A84E0898B8A8B95
:100EB0001B8A1C8A1D8A1E8A1F8A50961C92509774
:100EC00051961C92519752961C92529753961C928F
:100ED000539754961C92549755961C925597569634
:100EE0001C92569757961C92F801108A118A128A02
:100EF000138A148A158A168A178AE0EEF5E011869D
:100F00001182108214821682178210861582128234
:100F10001382128688EA91E1809344409093454081
:100F200089EA91E180934240909343408AEA91E1BB
:100F300080934040909341408BEA91E180933E4002
:100F400090933F408CEA91E180933C4090933D40E8
:100F50008DEA91E180933A4090933B40DF91CF91AD
:060F60001F910F9108959E
:100F66000E94211081E891E10E944F1182E791E1F0
:100F76000E945411E0E0F6E080818E7F808381E05C
:100F860083878081816080830E94B81080E00E9400
:100F960091110F2EFAE6CF2EF1E0DF2EF0E0EF2EC4
:100FA600F02D07E214E06894FF24F3F80F2EFEE814
:100FB6002F2EF1E03F2EF0E04F2EF02D0F2EF9E907
:100FC6006F2EF1E07F2EF0E08F2EF02D0E949D1106
:100FD6008823B9F00E949A110E94C20E0E94A50FA2
:100FE6008F937F936F93EF92DF92CF920E94BF0F02
:100FF6000E942C110F900F900F900F900F900F9052
:1010060038C00E9497118823A1F10E9494110E9472
:101016004A11EC01F801F0820E94A50F8F937F938D
:101026006F938BE791E0A0E0AF939F938F930E941D
:10103600BF0F4F923F922F920E94BF0F0E94DF1068
:10104600BE0180E090E00E94900C23E333E343E589
:101056005AE30E9489119F938F937F936F938F9288
:101066007F926F920E94BF0F8DB79EB740968DBF3D
:101076009EBF0E94DF100E949D118111A7CF889507
:041086000000A4CFF3
:10108A008F929F92AF92BF92CF92DF92EF92FF928E
:10109A000F931F938B019C0157E13695279517955E
:1010AA0007955A95D1F71127A8014F57510947318A
:1010BA0051050CF045C057FD2DC00FEF1FEF2FE76C
:1010CA0030E004C035952795179507954A95D2F7CC
:1010DA004801590186229722A822B92289288A28FA
:1010EA008B2871F197FF07C0DC01CB01800F911F9C
:1010FA00A21FB31F02C0DC01CB01009510952095F9
:10110A00309580239123A223B323482F392F2A2FE6
:10111A005B2F1AC097FF0FC08B019C01000F111F94
:10112A00221F331F012B022B032B51F040E030E02A
:10113A0020E85FEB09C040E030E020E050E004C066
:10114A00462F372F282F592F642F732F822F952F31
:10115A001F910F91FF90EF90DF90CF90BF90AF90CB
:06116A009F908F90089594
:1011700010C00E94FD1058F00E94F61040F029F4B3
:101180005F3F29F00C94441151110C9405110C94FB
:10119000A0110E94140F68F39923B1F3552391F322
:1011A000951B550BBB27AA2762177307840738F0D6
:1011B0009F5F5F4F220F331F441FAA1FA9F335D033
:1011C0000E2E3AF0E0E832D091505040E695001CE7
:1011D000CAF72BD0FE2F29D0660F771F881FBB1FA1
:1011E000261737074807AB07B0E809F0BB0B802D7F
:1011F000BF01FF2793585F4F3AF09E3F510578F0AB
:101200000C9444110C9405115F3FE4F3983ED4F321
:10121000869577956795B795F7959F5FC9F7880F7E
:10122000911D9695879597F90895E1E0660F771FD0
:10123000881FBB1F621773078407BA0720F0621B61
:0E124000730B840BBA0BEE1F88F7E095089530
:10124E000FC00E94F61038F00E94FD1020F095237A
:10125E0011F00C9444110C94A01111240C9405114E
:10126E000E94140F70F3959FC1F3950F50E0551F18
:10127E00629FF001729FBB27F00DB11D639FAA27DD
:10128E00F00DB11DAA1F649F6627B00DA11D661F2C
:10129E00829F2227B00DA11D621F739FB00DA11D4D
:1012AE00621F839FA00D611D221F749F3327A00D07
:1012BE00611D231F849F600D211D822F762F6A2FA3
:1012CE0011249F5750409AF0F1F088234AF0EE0F08
:1012DE00FF1FBB1F661F771F881F91505040A9F735
:1012EE009E3F510580F00C9444110C9405115F3F04
:1012FE00E4F3983ED4F3869577956795B795F79571
:10130E00E7959F5FC1F7FE2B880F911D96958795E8
:04131E0097F908959E
:1013220011C00E94F61038F00E94FD1020F039F42E
:101332009F3F19F426F40C94A0110EF4E095E7FBFC
:101342000C944411E92F0E94140F58F3BA17620744
:1013520073078407950720F079F4A6F50C9404111D
:101362000EF4E0950B2EBA2FA02D0B01B9019001BE
:101372000C01CA01A0011124FF27591B99F0593F02
:1013820050F4503E68F11A16F040A22F232F342F4A
:101392004427585FF3CF469537952795A795F04098
:1013A2005395C9F77EF41F16BA0B620B730B840BAD
:1013B200BAF09150A1F0FF0FBB1F661F771F881F65
:1013C200C2F70EC0BA0F621F731F841F48F48795BD
:1013D20077956795B795F7959E3F08F0B0CF9395AF
:0E13E200880F08F09927EE0F979587950895CC
:1013F000E0E0F2E086E0808B118A128A138A148A78
:10140000158A81E084A710A211A212A213A214A22D
:1014100015A216A217A215A616A612AE13AE16AEE8
:1014200017AE109240021092410214AA15AA17A6F4
:10143000168A178A10AA12AA109242021092430228
:10144000109248021092490216AA108E118E10A610
:1014500011A612A613A611AA14AE15AE109244023C
:101460001092450217AA10AE10924B0210924D0234
:1014700010924C0210924A0210924F0210925102A6
:101480001092500210924E02109253021092550286
:0C149000109254021092520280E0089565
:10149C00CF92DF92EF92DC0190E0292F30E0220F07
:1014AC00331F6901032E000CEE086E2DA6014D535F
:1014BC005E4F6F4F6A01E62EFA015E2D0E940B11F2
:1014CC00862F61110EC02F5F3F4F032E000C440B73
:1014DC002D533E4F4F4FF901542F0E940B11862F65
:1014EC0025C0CD90DD90EC901297F6015E2D0E94F8
:1014FC000B11861316C02F5F3F4F032E000C440BAD
:10150C002D533E4F4F4FF901542F0E940B11962F24
:10151C005FEFC51AD50AE50ACD92DD92EC921297CF
:10152C0001C09F5F9B3008F4B8CF892FEF90DF90FC
:04153C00CF900895AF
:1015400040E068ED80E690E00E946D1140E068EDBB
:1015500081E690E00E946D1140E068ED85E690E044
:101560000E946D1140E068ED88E790E00E946D11E7
:101570004CE068ED88E690E00E946D1140E068ED77
:1015800089E690E00E946D1140E068ED80E790E010
:101590000E946D1140E068ED8CE790E00E946D11B3
:1015A00040E068ED82E690E00E946D1140E068ED59
:1015B00083E690E00E946D1140E068ED84E690E0E3
:1015C0000E946D1140E068ED80E890E00E946D118E
:0C15D000E0E6F0E0858181FFFDCF08958A
:1015DC000F931F93CF93DF93DB01109719F48FEFC9
:1015EC009FEF3DC02D913C91119730FF25C0179670
:1015FC004D915C91189715962D913C911697421729
:10160C00530778F41296ED91FC9113978083129600
:10161C002D913C9113972F5F3F4F12962D933C9336
:10162C00139717962D913C9118972F5F3F4F179654
:10163C002D933C93189713C01D96ED91FC911E971A
:10164C00309769F2EB01092F182F0995892B39F680
:10165C008F81988501968F839887812F902FDF91AA
:08166C00CF911F910F91089529
:101674006F927F928F92AF92BF92CF92DF92EF924E
:10168400FF920F931F93CF93DF935C013A01862E51
:10169400E901670181E0C822DD24E0FC03C02017D2
:1016A400310758F09E01682DA301C5010E94400D29
:1016B400C017D10710F0CE0118C07801EC1AFD0A4A
:1016C400E114F10449F0B50180E290E00E94EE0AD1
:1016D40081E0E81AF108F4CFCD2831F49E01682D99
:1016E400A301C5010E94400DC801DF91CF911F9154
:1016F4000F91FF90EF90DF90CF90BF90AF908F90BD
:061704007F906F90089534
:10170A00A3E8B0E0EBE8FBE00C94DE0F5C014901D2
:10171A00CF57DF4F488359836A83C158D040C12CC1
:10172A00D12CCF57DF4F9881C158D040CE57DF4FC9
:10173A008881C258D040CD57DF4F5881C358D04016
:10174A00E92FF82F0E940B116623E9F07401860134
:10175A0020E830E0AE014F5F5F4FBE016F577F4F09
:10176A00C5010E94A7048C0D9D1D8C159D054CF486
:10177A008FE490E080930640909307408FEF9FEFAD
:10178A0003C06C01CECFC601CD57DF4FECE00C94FD
:02179A000F102E
:10179C001F920F920FB60F9211240BB60F922F932C
:1017AC003F934F935F936F937F938F939F93AF93DD
:1017BC00BF93EF93FF93399B05C0E0914440F091A8
:1017CC0045400995389B05C0E0914240F09143405B
:1017DC0009953A9B05C0E0914040F0914140099534
:1017EC003B9B05C0E0913A40F0913B4009958FEF4F
:1017FC0087B9FF91EF91BF91AF919F918F917F919D
:10180C006F915F914F913F912F910F900BBE0F9065
:08181C000FBE0F901F901895FC
:101824001F920F920FB60F9211240BB60F922F93A3
:101834003F934F935F936F937F938F939F93AF9354
:10184400BF93EF93FF938091430180FF07C0E09122
:101854004A40F0914B40309709F00995809143013B
:1018640081FF07C0E0914840F0914940309709F06A
:10187400099583E080934301FF91EF91BF91AF916C
:101884009F918F917F916F915F914F913F912F9194
:0E1894000F900BBE0F900FBE0F901F90189577
:1018A200CF93DF93DC01EB012D913D914C91129787
:1018B200F901542F0E940B116A3221F080E090E06E
:1018C2007AE00FC02F5F3F4F4F4F2D933D934C93C4
:1018D200E881F981CF010296888399838081918181
:1018E2001BC02D913D914C911297F901542F0E94EA
:1018F2000B1160536A3080F4789FF001799FF00DEC
:101902001124CF01860F911D2F5F3F4F4F4F2D9313
:0E1912003D934C931297E5CFDF91CF9108954E
:10192000E89409C097FB3EF4909580957095619579
:101930007F4F8F4F9F4F9923A9F0F92F96E9BB272F
:101940009395F695879577956795B795F111F8CFAB
:10195000FAF4BB0F11F460FF1BC06F5F7F4F8F4F16
:101960009F4F16C0882311F096E911C0772321F00C
:101970009EE8872F762F05C0662371F096E8862FA4
:1019800070E060E02AF09A95660F771F881FDAF7FB
:0A199000880F9695879597F9089542
:10199A006F927F928F92CF92DF92EF92FF920F9384
:1019AA001F93CF93DF936C01FB013901842EC80189
:1019BA00C281D38104811581E080F180232B242BFD
:1019CA0031F429EE622E21E0722E20E0822E009759
:1019DA0021F4882DB3010E946010D7FD04C0C817F6
:1019EA00D90708F4CE019C01682DA301C6010E9403
:1019FA003A0BDF91CF911F910F91FF90EF90DF90FB
:0A1A0A00CF908F907F906F900895A9
:101A14001F920F920FB60F9211240BB60F922F93B1
:101A24003F934F935F936F937F938F939F93AF9362
:101A3400BF93EF93FF93799B05C0E0913E40F091F3
:101A44003F4009957A9B05C0E0913C40F0913D40B0
:101A540009958FEF8FB9FF91EF91BF91AF919F914E
:101A64008F917F916F915F914F913F912F910F9043
:0C1A74000BBE0F900FBE0F901F90189536
:101A80006F927F928F92CF92DF92EF920F931F937C
:101A9000CF93DF938C016A01E62EE9013A01862E8D
:101AA000620E731E811C37FD8A94C614D704E804A5
:101AB00081F0F6015E2D0E940B11862FB801082ED1
:101AC000000C990B0E94EE0A8FEFC81AD80AE80A98
:101AD000ECCFCE01DF91CF911F910F91EF90DF906E
:0A1AE000CF908F907F906F900895D3
:101AEA001F920F920FB60F9211240BB60F922F93DB
:101AFA003F934F935F936F937F938F939F93AF938C
:101B0A00BF93EF93FF938091C70184FF05C0E091D3
:101B1A003840F0913940099580E18093C701FF91DF
:101B2A00EF91BF91AF919F918F917F916F915F914B
:101B3A004F913F912F910F900BBE0F900FBE0F90B8
:041B4A001F9018953B
:101B4E001F920F920FB60F9211240BB60F922F9376
:101B5E003F934F935F936F937F938F939F93AF9327
:101B6E00BF93EF93FF9382E080930D06E091364092
:101B7E00F0913740309709F00995FF91EF91BF91A1
:101B8E00AF919F918F917F916F915F914F913F9107
:101B9E002F910F900BBE0F900FBE0F901F901895A8
:101BAE001F920F920FB60F9211240BB60F922F9316
:101BBE003F934F935F936F937F938F939F93AF93C7
:101BCE00BF93EF93FF9381E080930D06E091344035
:101BDE00F0913540309709F00995FF91EF91BF9143
:101BEE00AF919F918F917F916F915F914F913F91A7
:101BFE002F910F900BBE0F900FBE0F901F90189548
:101C0E001F920F920FB60F9211240BB60F922F93B5
:101C1E003F934F935F936F937F938F939F93AF9366
:101C2E00BF93EF93FF93E0914640F091474030977A
:101C3E0009F0099581E080935301FF91EF91BF91D7
:101C4E00AF919F918F917F916F915F914F913F9146
:101C5E002F910F900BBE0F900FBE0F901F901895E7
:101C6E000E941C0F88F09F5798F0B92F9927B751F3
:101C7E00B0F0E1F0660F771F881F991F1AF0BA9522
:101C8E00C9F714C0B13091F00E940411B1E008956B
:101C9E000C940411672F782F8827B85F39F0B93F5D
:101CAE00CCF3869577956795B395D9F73EF49095D5
:0E1CBE008095709561957F4F8F4F9F4F0895D1
:101CCC00E0ECF1E0158281E08683178211861286A2
:101CDC0015861686118A128A158A168A118E85E047
:101CEC00828F158E168E118212821382138617869E
:101CFC00138A178A80E1838F178E10861486108AB8
:101D0C00148A8DEA808F148E81E4808387EA91E1B6
:0C1D1C00809338409093394080E0089597
:101D2800E0E6F8E083E896E080879187158280EC0A
:101D3800868383E0878313861486168615868EEA43
:101D480091E180930440909305408FEA91E180935C
:101D580002409093034080EB91E180930040909380
:101D6800014010924C4010924D40E0914E40F0914D
:0C1D78004F4083E290E480839183089543
:101D8400809113078077803249F4E0E0F7E083899B
:101D94008F788061838B85E1828B1BC080911207D1
:101DA40082958695877091E0980F983039F4E0E039
:101DB400F7E083898F788062838B90E0E0E0F7E03E
:101DC4008289282F2F7130E2939FC0011124822B26
:0C1DD400828B0E94EF108823E1F3089539
:101DE000990F0008550FAA0BE0E8FEEF161617062C
:101DF000E807F907C0F012161306E407F50798F094
:101E0000621B730B840B950B39F40A2661F0232BAC
:101E1000242B252B21F408950A2609F4A140A69528
:081E20008FEF811D811D089563
:101E280057FD9058440F551F59F05F3F71F0479583
:101E3800880F97FB991F61F09F3F79F08795089568
:101E4800121613061406551FF2CF4695F1DF08C087
:101E5800161617061806991FF1CF869571056105A4
:041E6800089408953D
:101E6C00FA0160387105CCF0623871051CF06338EA
:101E7C00710599F4A081B1819D012C5F3F4F2083A6
:101E8C0031834D915D916D917C91FC014083518327
:101E9C006283738381E090E0089580E090E0089580
:101EAC000E942611E0E0F7E083E08283118217861E
:101EBC0080E2838B128A85E8808B8FE7848B138E6C
:101ECC00128E92E0908F848F13A212A290A384A3FF
:061EDC000E942011089590
:101EE200E0E0F6E0118212821382148281E086879A
:101EF2008387848782E0808780E4818784E6858384
:101F02008FEF9FE0848B958B128A138A81E88083FE
:041F120080E00895CE
:101F1600E0E4F1E081818111FDCFE0E4F1E08FEFB3
:101F260093E084879587108611868FEF97E08287E6
:101F3600938781E08783128281898111FDCF109278
:041F460052010895A7
:101F4A00809113078077803239F080911207829549
:101F5A00869587708F5F01C080E090E0FC01EE0FEC
:101F6A00FF1F8E0F9F1FFC01E85FFF4B608171818D
:041F7A0082810895C3
:101F7E00A0E0B0E0E5ECFFE00C94E80F9E012B5FD3
:101F8E003F4FF9014191519161919F01E0914E4076
:101F9E00F0914F40808191810E94F10FE2E00C940C
:021FAE00191008
:101FB0002F923F924F925F926F927F928F929F9259
:101FC000AF92BF92CF92DF92EF92FF920F931F9347
:101FD000CF93DF93CDB7DEB7CA1BDB0BCDBFDEBF20
:021FE000099462
:101FE200A2E0B0E0E7EFFFE00C94E60F8C0129835A
:101FF2003A839E012F5F3F4F0E94850BF80120819B
:1020020024FF02C08FEF9FEF2296E4E00C9417109A
:102012002A88398848885F846E847D848C849B8476
:10202200AA84B984C884DF80EE80FD800C811B8184
:10203200AA81B981CE0FD11DCDBFDEBFED010895BA
:102042000E9410070E94710F0E94660E0E94A00A51
:102052000E94F8090E94560F0E948B0F0E94831063
:0E2062000E94940E0E94D7100E949F100895B5
:1020700097FB072E16F4009407D077FD09D00E9435
:102080004C1007FC05D03EF4909581959F4F089524
:08209000709561957F4F0895E2
:10209800AA1BBB1B51E107C0AA1FBB1FA617B70786
:1020A80010F0A61BB70B881F991F5A95A9F78095A2
:0820B8009095BC01CD010895D3
:1020C0009B01482FA82FCB01FC015A2F0E940B1116
:1020D000662319F00196A11DF7CF642FA901841B77
:0420E000950B0895BF
:1020E400092E0394000C11F4882352F0BB0F40F422
:1020F400BF2B11F460FF04C06F5F7F4F8F4F9F4F62
:0221040008953C
:1021060043E068ED80E590E00E946D1140E068EDE7
:0C21160081E590E00E946D1180E00895CA
:102122009A01462FDC01F901542F0E940B116D9385
:0C2132002F5F3F4F4F4F6111F6CF089513
:10213E0040E468ED80E191E00E946D11E0E1F1E094
:0A214E0012821382789480E0089555
:10215800CF93C82F0E9438118823E1F3C0936208F7
:0821680080E090E0CF910895A2
:10217000E0E4F1E0818180FDFDCFE0E4F1E08081E9
:06218000816880830895D0
:10218600EC010E94B2110E94B111CE010E94B3115E
:06219600CE010E94A5111C
:10219C00FC01480F591FE417F50711F06193FBCFB1
:0221AC00089594
:1021AE00E0EBF0E0148285E08083128280E00895F7
:1021BE000E943E118823E1F380E480936408089521
:1021CE009C01215431092A31310508F480620895A9
:0E21DE009091110781E0911101C080E00895F9
:0E21EC0000240A941616170618060906089510
:0E21FA0000240A941216130614060506089512
:0E220800E894BB2766277727CB0197F9089546
:0E22160057FD03C05BBF679108956081089576
:0E2224005058BB27AA270E9491090C947210F3
:0E2232000E94370E6894B1110C9405110895A6
:0C224000E0E0F7E0808181608083089579
:0C224C00E0E0F7E080818E7F8083089541
:0C225800E0E4F1E0808181608083089563
:0C226400E0E4F1E080818E7F808308952B
:0C2270008091640885FB882780F90895A0
:0C227C008091640886FB882780F9089593
:0C22880097F99F6780E870E060E008951F
:0A2294008091100690911106089544
:0A229E00809334409093354008957A
:0A22A8008093384090933940089568
:0A22B2008F938FEF83B98F91189579
:0A22BC008F938FEF8BB98F91189567
:0A22C6008F938FEF83BB8F91189563
:0A22D0008F938FEF87BB8F91189555
:0A22DA001BBEFC0164BF40830895A1
:0A22E4000E9432110E948511089536
:0A22EE000E94F00E08F481E008954C
:0A22F8000E94F00E08F48FEF089525
:0823020081E08093534008952F
:08230A0081E080935240089528
:082312000E9427090C947210CF
:08231A000E94B8080C94721037
:062322008093620808959B
:06232800109253400895DD
:06232E0080915340089568
:06233400109252400895D2
:06233A008091524008955D
:062340009FEF80EC089500
:042346000C940000F3
:04234A000E94B3003A
:02234E000895F0
:022350000895EE
:022352000895EC
:022354000895EA
:022356000895E8
:022358000895E6
:02235A000895E4
:02235C000895E2
:02235E000895E0
:022360000895DE
:022362000895DC
:022364000895DA
:022366000895D8
:10236800A40100A60100AB0100B00100B50100B74F
:0B2378000100BC0100BE0100C001001C
:1023830003000000000000000000000000AC10008B
:012393000049
:022394005040B7
:02000004008278
:090000000000000000C00800002F
:00000001FF
